{
  "transactions": [
    {
      "hash": "0x6e5eeaccfb6d4a848d5c0d48d0d5265cbd95cd5a44a2e2e6e6097a18104c5c07",
      "transactionType": "CALL",
      "contractName": null,
      "contractAddress": "0x2ae89936fc398aea23c63db2404018fe361a8628",
      "function": "propose(uint256,uint256,address,address[],uint256[],bytes[],uint256[])",
      "arguments": [
        "2020",
        "1730788678",
        "0x0000000000000000000000000000000000000000",
        "[0x0CF8fF40a508bdBc39fBe1Bb679dCBa64E65C7Df, 0x0CF8fF40a508bdBc39fBe1Bb679dCBa64E65C7Df]",
        "[0, 0]",
        "[0x4bb5274a00000000000000000000000000000000000000000000000000000000000000200000000000000000000000000000000000000000000000000000000000000304dbd2ef6c0000000000000000000000000000000000000000000000000000000000000080000000000000000000000000000000000000000000000000000000000000012000000000000000000000000000000000000000000000000000000000000001c000000000000000000000000000000000000000000000000000000000000002600000000000000000000000000000000000000000000000000000000000000004000000000000000000000000d61bbbb8369c46c15868ad9263a2710aced156c400000000000000000000000018d2bdef572c67127e218c425f546fe64430a92c000000000000000000000000f80132fc0a86add011bffce3aedd60a86e3d704d000000000000000000000000342fcfc16943a930251d15fccdcd95104f9b4e5f000000000000000000000000000000000000000000000000000000000000000400000000000000000000000088d100432f98956b16b66df56962fd3e5ccd297a000000000000000000000000540dde0739eefaf90d0ca05aca90513ce89e7e79000000000000000000000000153a381d1207862ca003f68600462faa66a828a7000000000000000000000000e41af8c3f0decf206c3afb9dbf2e7643f349e0b9000000000000000000000000000000000000000000000000000000000000000400000000000000000000000000000000000000000000000000000000000000010000000000000000000000000000000000000000000000000000000000000001000000000000000000000000000000000000000000000000000000000000000100000000000000000000000000000000000000000000000000000000000000010000000000000000000000000000000000000000000000000000000000000004000000000000000000000000000000000000000000000000000000000000000000000000000000000000000000000000000000000000000000000000000000000000000000000000000000000000000000000000000000000000000000000000000000000000000000000000000000000000000000000000000000000000000100000000000000000000000000000000000000000000000000000000, 0x4bb5274a0000000000000000000000000000000000000000000000000000000000000020000000000000000000000000000000000000000000000000000000000000014464363f78000000000000000000000000000000000000000000000000000000000000004000000000000000000000000000000000000000000000000000000000000000c00000000000000000000000000000000000000000000000000000000000000003000000000000000000000000d61bbbb8369c46c15868ad9263a2710aced156c400000000000000000000000018d2bdef572c67127e218c425f546fe64430a92c000000000000000000000000f80132fc0a86add011bffce3aedd60a86e3d704d00000000000000000000000000000000000000000000000000000000000000030000000000000000000000000000000000000000000000003782dace9d9000000000000000000000000000000000000000000000000000008ac7230489e800000000000000000000000000000000000000000000000000410d586a20a4c0000000000000000000000000000000000000000000000000000000000000]",
        "[4000000, 1000000]"
      ],
      "transaction": {
        "from": "0xe880802580a1fbdef67ace39d1b21c5b2c74f059",
        "to": "0x2ae89936fc398aea23c63db2404018fe361a8628",
        "gas": "0x50994",
        "value": "0x0",
        "input": "0x15702f0500000000000000000000000000000000000000000000000000000000000007e4000000000000000000000000000000000000000000000000000000006729bd46000000000000000000000000000000000000000000000000000000000000000000000000000000000000000000000000000000000000000000000000000000e0000000000000000000000000000000000000000000000000000000000000014000000000000000000000000000000000000000000000000000000000000001a0000000000000000000000000000000000000000000000000000000000000078000000000000000000000000000000000000000000000000000000000000000020000000000000000000000000cf8ff40a508bdbc39fbe1bb679dcba64e65c7df0000000000000000000000000cf8ff40a508bdbc39fbe1bb679dcba64e65c7df0000000000000000000000000000000000000000000000000000000000000002000000000000000000000000000000000000000000000000000000000000000000000000000000000000000000000000000000000000000000000000000000000000000000000000000000000000000000000000000000000000000000000002000000000000000000000000000000000000000000000000000000000000004000000000000000000000000000000000000000000000000000000000000003e000000000000000000000000000000000000000000000000000000000000003644bb5274a00000000000000000000000000000000000000000000000000000000000000200000000000000000000000000000000000000000000000000000000000000304dbd2ef6c0000000000000000000000000000000000000000000000000000000000000080000000000000000000000000000000000000000000000000000000000000012000000000000000000000000000000000000000000000000000000000000001c000000000000000000000000000000000000000000000000000000000000002600000000000000000000000000000000000000000000000000000000000000004000000000000000000000000d61bbbb8369c46c15868ad9263a2710aced156c400000000000000000000000018d2bdef572c67127e218c425f546fe64430a92c000000000000000000000000f80132fc0a86add011bffce3aedd60a86e3d704d000000000000000000000000342fcfc16943a930251d15fccdcd95104f9b4e5f000000000000000000000000000000000000000000000000000000000000000400000000000000000000000088d100432f98956b16b66df56962fd3e5ccd297a000000000000000000000000540dde0739eefaf90d0ca05aca90513ce89e7e79000000000000000000000000153a381d1207862ca003f68600462faa66a828a7000000000000000000000000e41af8c3f0decf206c3afb9dbf2e7643f349e0b90000000000000000000000000000000000000000000000000000000000000004000000000000000000000000000000000000000000000000000000000000000100000000000000000000000000000000000000000000000000000000000000010000000000000000000000000000000000000000000000000000000000000001000000000000000000000000000000000000000000000000000000000000000100000000000000000000000000000000000000000000000000000000000000040000000000000000000000000000000000000000000000000000000000000000000000000000000000000000000000000000000000000000000000000000000000000000000000000000000000000000000000000000000000000000000000000000000000000000000000000000000000000000000000000000000000000001000000000000000000000000000000000000000000000000000000000000000000000000000000000000000000000000000000000000000000000000000000000000000000000000000000000000000000000000000001a44bb5274a0000000000000000000000000000000000000000000000000000000000000020000000000000000000000000000000000000000000000000000000000000014464363f78000000000000000000000000000000000000000000000000000000000000004000000000000000000000000000000000000000000000000000000000000000c00000000000000000000000000000000000000000000000000000000000000003000000000000000000000000d61bbbb8369c46c15868ad9263a2710aced156c400000000000000000000000018d2bdef572c67127e218c425f546fe64430a92c000000000000000000000000f80132fc0a86add011bffce3aedd60a86e3d704d00000000000000000000000000000000000000000000000000000000000000030000000000000000000000000000000000000000000000003782dace9d9000000000000000000000000000000000000000000000000000008ac7230489e800000000000000000000000000000000000000000000000000410d586a20a4c000000000000000000000000000000000000000000000000000000000000000000000000000000000000000000000000000000000000000000000000000000000000000000000000000000000000000000000000000000000000200000000000000000000000000000000000000000000000000000000003d090000000000000000000000000000000000000000000000000000000000000f4240",
        "nonce": "0x34",
        "chainId": "0x7e4"
      },
      "additionalContracts": [],
      "isFixedGasLimit": false
    }
  ],
  "receipts": [
    {
      "status": "0x1",
      "cumulativeGasUsed": "0x1c0c81",
      "logs": [
        {
          "address": "0x2ae89936fc398aea23c63db2404018fe361a8628",
          "topics": [
            "0x58f98006a7f2f253f8ae8f8b7cec9008ca05359633561cd7c22f3005682d4a55",
            "0x0000000000000000000000000000000000000000000000000000000000000000"
          ],
          "data": "0x",
          "blockHash": "0xa4ed068e10d7d21347686ac387e94935934bed955d0870bed134ad82e1bbc49b",
          "blockNumber": "0x256da31",
          "transactionHash": "0x6e5eeaccfb6d4a848d5c0d48d0d5265cbd95cd5a44a2e2e6e6097a18104c5c07",
          "transactionIndex": "0x1a",
          "logIndex": "0x29",
          "removed": false
        },
        {
          "address": "0x2ae89936fc398aea23c63db2404018fe361a8628",
          "topics": [
            "0xd1221ffb98610024a29755d7db3c71692310f43a7cfcce7ee488a8c7e9e0bfa4",
            "0x00000000000000000000000000000000000000000000000000000000000007e4",
            "0x0000000000000000000000000000000000000000000000000000000000000001",
            "0x7bab4d8ab336aa5a996a0a8671f28585dab162e538cf38ee8eddda4e75ee8322"
          ],
          "data": "0x0000000000000000000000000000000000000000000000000000000000000040000000000000000000000000e880802580a1fbdef67ace39d1b21c5b2c74f059000000000000000000000000000000000000000000000000000000000000000100000000000000000000000000000000000000000000000000000000000007e4000000000000000000000000000000000000000000000000000000006729bd4600000000000000000000000000000000000000000000000000000000000000000000000000000000000000000000000000000000000000000000000000000100000000000000000000000000000000000000000000000000000000000000016000000000000000000000000000000000000000000000000000000000000001c000000000000000000000000000000000000000000000000000000000000007a000000000000000000000000000000000000000000000000000000000000000020000000000000000000000000cf8ff40a508bdbc39fbe1bb679dcba64e65c7df0000000000000000000000000cf8ff40a508bdbc39fbe1bb679dcba64e65c7df0000000000000000000000000000000000000000000000000000000000000002000000000000000000000000000000000000000000000000000000000000000000000000000000000000000000000000000000000000000000000000000000000000000000000000000000000000000000000000000000000000000000000002000000000000000000000000000000000000000000000000000000000000004000000000000000000000000000000000000000000000000000000000000003e000000000000000000000000000000000000000000000000000000000000003644bb5274a00000000000000000000000000000000000000000000000000000000000000200000000000000000000000000000000000000000000000000000000000000304dbd2ef6c0000000000000000000000000000000000000000000000000000000000000080000000000000000000000000000000000000000000000000000000000000012000000000000000000000000000000000000000000000000000000000000001c000000000000000000000000000000000000000000000000000000000000002600000000000000000000000000000000000000000000000000000000000000004000000000000000000000000d61bbbb8369c46c15868ad9263a2710aced156c400000000000000000000000018d2bdef572c67127e218c425f546fe64430a92c000000000000000000000000f80132fc0a86add011bffce3aedd60a86e3d704d000000000000000000000000342fcfc16943a930251d15fccdcd95104f9b4e5f000000000000000000000000000000000000000000000000000000000000000400000000000000000000000088d100432f98956b16b66df56962fd3e5ccd297a000000000000000000000000540dde0739eefaf90d0ca05aca90513ce89e7e79000000000000000000000000153a381d1207862ca003f68600462faa66a828a7000000000000000000000000e41af8c3f0decf206c3afb9dbf2e7643f349e0b90000000000000000000000000000000000000000000000000000000000000004000000000000000000000000000000000000000000000000000000000000000100000000000000000000000000000000000000000000000000000000000000010000000000000000000000000000000000000000000000000000000000000001000000000000000000000000000000000000000000000000000000000000000100000000000000000000000000000000000000000000000000000000000000040000000000000000000000000000000000000000000000000000000000000000000000000000000000000000000000000000000000000000000000000000000000000000000000000000000000000000000000000000000000000000000000000000000000000000000000000000000000000000000000000000000000000001000000000000000000000000000000000000000000000000000000000000000000000000000000000000000000000000000000000000000000000000000000000000000000000000000000000000000000000000000001a44bb5274a0000000000000000000000000000000000000000000000000000000000000020000000000000000000000000000000000000000000000000000000000000014464363f78000000000000000000000000000000000000000000000000000000000000004000000000000000000000000000000000000000000000000000000000000000c00000000000000000000000000000000000000000000000000000000000000003000000000000000000000000d61bbbb8369c46c15868ad9263a2710aced156c400000000000000000000000018d2bdef572c67127e218c425f546fe64430a92c000000000000000000000000f80132fc0a86add011bffce3aedd60a86e3d704d00000000000000000000000000000000000000000000000000000000000000030000000000000000000000000000000000000000000000003782dace9d9000000000000000000000000000000000000000000000000000008ac7230489e800000000000000000000000000000000000000000000000000410d586a20a4c000000000000000000000000000000000000000000000000000000000000000000000000000000000000000000000000000000000000000000000000000000000000000000000000000000000000000000000000000000000000200000000000000000000000000000000000000000000000000000000003d090000000000000000000000000000000000000000000000000000000000000f4240",
          "blockHash": "0xa4ed068e10d7d21347686ac387e94935934bed955d0870bed134ad82e1bbc49b",
          "blockNumber": "0x256da31",
          "transactionHash": "0x6e5eeaccfb6d4a848d5c0d48d0d5265cbd95cd5a44a2e2e6e6097a18104c5c07",
          "transactionIndex": "0x1a",
          "logIndex": "0x2a",
          "removed": false
        }
      ],
      "logsBloom": "0x00000000000000010000000000000200000040000000000000000000000000000000000000000000100000000000000000000000000000000100000000040000000000000000000000000000000000000000000000040000000200002000000000000000020000000000000000000800000000000000000000000000000000000000000000000000000000000000000000000000000000000000000004000000000000000000000000000000000000000400020000000000000000000010000000000000000000000000000000000008000000000000000000000000000060000000000000000000000000000000100000000000040000000000080000000000",
      "type": "0x0",
      "transactionHash": "0x6e5eeaccfb6d4a848d5c0d48d0d5265cbd95cd5a44a2e2e6e6097a18104c5c07",
      "transactionIndex": "0x1a",
      "blockHash": "0xa4ed068e10d7d21347686ac387e94935934bed955d0870bed134ad82e1bbc49b",
      "blockNumber": "0x256da31",
      "gasUsed": "0x25edd",
      "effectiveGasPrice": "0x4a817c800",
      "from": "0xe880802580a1fbdef67ace39d1b21c5b2c74f059",
      "to": "0x2ae89936fc398aea23c63db2404018fe361a8628",
      "contractAddress": null
    }
  ],
  "libraries": [],
  "pending": [],
  "returns": {},
  "timestamp": 1729579368,
  "chain": 2020,
  "commit": "61c7c56"
}