{
  "transactions": [
    {
      "hash": "0xb877e79230ee39f729b965017f4da002d217ec7fbb159d10f180338c2e52a91a",
      "transactionType": "CALL",
      "contractName": null,
      "contractAddress": "0x2ae89936fc398aea23c63db2404018fe361a8628",
      "function": "propose(uint256,uint256,address,address[],uint256[],bytes[],uint256[])",
      "arguments": [
        "1",
        "1730792194",
        "0xe880802580a1fbdeF67ACe39D1B21c5b2C74f059",
        "[0x64192819Ac13Ef72bF6b5AE239AC672B43a9AF08]",
        "[0]",
        "[0x4bb5274a00000000000000000000000000000000000000000000000000000000000000200000000000000000000000000000000000000000000000000000000000000564dff525e10000000000000000000000000000000000000000000000000000000000000080000000000000000000000000000000000000000000000000000000000000012000000000000000000000000000000000000000000000000000000000000001c00000000000000000000000000000000000000000000000000000000000000260000000000000000000000000000000000000000000000000000000000000000400000000000000000000000088d100432f98956b16b66df56962fd3e5ccd297a000000000000000000000000540dde0739eefaf90d0ca05aca90513ce89e7e79000000000000000000000000153a381d1207862ca003f68600462faa66a828a7000000000000000000000000e41af8c3f0decf206c3afb9dbf2e7643f349e0b90000000000000000000000000000000000000000000000000000000000000004000000000000000000000000d61bbbb8369c46c15868ad9263a2710aced156c400000000000000000000000018d2bdef572c67127e218c425f546fe64430a92c000000000000000000000000f80132fc0a86add011bffce3aedd60a86e3d704d000000000000000000000000342fcfc16943a930251d15fccdcd95104f9b4e5f000000000000000000000000000000000000000000000000000000000000000400000000000000000000000000000000000000000000000000000000000000000000000000000000000000000000000000000000000000000000000000000000000000000000000000000000000000000000000000000000000000000000000000000000000000000000000000000000000000000000000000000000000000010000000000000000000000000000000000000000000000000000000000000080000000000000000000000000000000000000000000000000000000000000012000000000000000000000000000000000000000000000000000000000000001c00000000000000000000000000000000000000000000000000000000000000260000000000000000000000000000000000000000000000000000000000000000400000000000000000000000000000000000000000000021e19e0c9bab2400000000000000000000000000000000000000000000000000a968163f0a57b4000000000000000000000000000000000000000000000000422ca8b0a00a42500000000000000000000000000000000000000000000000000000000000000000000000000000000000000000000000000000000000000000000000000000000000004000000000000000000000000000000000000000000000878678326eac9000000000000000000000000000000000000000000000000002a5a058fc295ed000000000000000000000000000000000000000000000000108b2a2c2802909400000000000000000000000000000000000000000000000000000000000000000000000000000000000000000000000000000000000000000000000000000000000004000000000000000000000000000000000000000000000000000000000000000a000000000000000000000000000000000000000000000000000000000000000a000000000000000000000000000000000000000000000000000000000000000a0000000000000000000000000000000000000000000000000000000000000000000000000000000000000000000000000000000000000000000000000000000400000000000000000000000000000000000000000000065a4da25d3016c0000000000000000000000000000000000000000000000000152d02c7e14af680000000000000000000000000000000000000000000000009ed194db19b238c000000000000000000000000000000000000000000000000000000000000000000000000000000000000000000000000000000000000000000000000000000]",
        "[4000000]"
      ],
      "transaction": {
        "from": "0xe880802580a1fbdef67ace39d1b21c5b2c74f059",
        "to": "0x2ae89936fc398aea23c63db2404018fe361a8628",
        "gas": "0x4cca6",
        "value": "0x0",
        "input": "0x15702f050000000000000000000000000000000000000000000000000000000000000001000000000000000000000000000000000000000000000000000000006729cb02000000000000000000000000e880802580a1fbdef67ace39d1b21c5b2c74f05900000000000000000000000000000000000000000000000000000000000000e00000000000000000000000000000000000000000000000000000000000000120000000000000000000000000000000000000000000000000000000000000016000000000000000000000000000000000000000000000000000000000000007a0000000000000000000000000000000000000000000000000000000000000000100000000000000000000000064192819ac13ef72bf6b5ae239ac672b43a9af08000000000000000000000000000000000000000000000000000000000000000100000000000000000000000000000000000000000000000000000000000000000000000000000000000000000000000000000000000000000000000000000001000000000000000000000000000000000000000000000000000000000000002000000000000000000000000000000000000000000000000000000000000005c44bb5274a00000000000000000000000000000000000000000000000000000000000000200000000000000000000000000000000000000000000000000000000000000564dff525e10000000000000000000000000000000000000000000000000000000000000080000000000000000000000000000000000000000000000000000000000000012000000000000000000000000000000000000000000000000000000000000001c00000000000000000000000000000000000000000000000000000000000000260000000000000000000000000000000000000000000000000000000000000000400000000000000000000000088d100432f98956b16b66df56962fd3e5ccd297a000000000000000000000000540dde0739eefaf90d0ca05aca90513ce89e7e79000000000000000000000000153a381d1207862ca003f68600462faa66a828a7000000000000000000000000e41af8c3f0decf206c3afb9dbf2e7643f349e0b90000000000000000000000000000000000000000000000000000000000000004000000000000000000000000d61bbbb8369c46c15868ad9263a2710aced156c400000000000000000000000018d2bdef572c67127e218c425f546fe64430a92c000000000000000000000000f80132fc0a86add011bffce3aedd60a86e3d704d000000000000000000000000342fcfc16943a930251d15fccdcd95104f9b4e5f000000000000000000000000000000000000000000000000000000000000000400000000000000000000000000000000000000000000000000000000000000000000000000000000000000000000000000000000000000000000000000000000000000000000000000000000000000000000000000000000000000000000000000000000000000000000000000000000000000000000000000000000000000010000000000000000000000000000000000000000000000000000000000000080000000000000000000000000000000000000000000000000000000000000012000000000000000000000000000000000000000000000000000000000000001c00000000000000000000000000000000000000000000000000000000000000260000000000000000000000000000000000000000000000000000000000000000400000000000000000000000000000000000000000000021e19e0c9bab2400000000000000000000000000000000000000000000000000a968163f0a57b4000000000000000000000000000000000000000000000000422ca8b0a00a42500000000000000000000000000000000000000000000000000000000000000000000000000000000000000000000000000000000000000000000000000000000000004000000000000000000000000000000000000000000000878678326eac9000000000000000000000000000000000000000000000000002a5a058fc295ed000000000000000000000000000000000000000000000000108b2a2c2802909400000000000000000000000000000000000000000000000000000000000000000000000000000000000000000000000000000000000000000000000000000000000004000000000000000000000000000000000000000000000000000000000000000a000000000000000000000000000000000000000000000000000000000000000a000000000000000000000000000000000000000000000000000000000000000a0000000000000000000000000000000000000000000000000000000000000000000000000000000000000000000000000000000000000000000000000000000400000000000000000000000000000000000000000000065a4da25d3016c0000000000000000000000000000000000000000000000000152d02c7e14af680000000000000000000000000000000000000000000000009ed194db19b238c00000000000000000000000000000000000000000000000000000000000000000000000000000000000000000000000000000000000000000000000000000000000000000000000000000000000000000000000000000000000000000000000000000000000000000000000000000000000000000000000000000100000000000000000000000000000000000000000000000000000000003d0900",
        "nonce": "0x36",
        "chainId": "0x7e4"
      },
      "additionalContracts": [],
      "isFixedGasLimit": false
    }
  ],
  "receipts": [
    {
      "status": "0x1",
      "cumulativeGasUsed": "0x46cd8",
      "logs": [
        {
          "address": "0x2ae89936fc398aea23c63db2404018fe361a8628",
          "topics": [
            "0x58f98006a7f2f253f8ae8f8b7cec9008ca05359633561cd7c22f3005682d4a55",
            "0x0000000000000000000000000000000000000000000000000000000000000000"
          ],
          "data": "0x",
          "blockHash": "0xc678457ddac09a85f3818c2854ad70bcf5b3cb2100a3000a08d4c547edb7b3d2",
          "blockNumber": "0x256de79",
          "transactionHash": "0xb877e79230ee39f729b965017f4da002d217ec7fbb159d10f180338c2e52a91a",
          "transactionIndex": "0x3",
          "logIndex": "0x3",
          "removed": false
        },
        {
          "address": "0x2ae89936fc398aea23c63db2404018fe361a8628",
          "topics": [
            "0xd1221ffb98610024a29755d7db3c71692310f43a7cfcce7ee488a8c7e9e0bfa4",
            "0x0000000000000000000000000000000000000000000000000000000000000001",
            "0x0000000000000000000000000000000000000000000000000000000000000002",
            "0xd1e7f6009706fe1f00c3c346960e053f2ee17599885365522ac035f45eb3dce0"
          ],
          "data": "0x0000000000000000000000000000000000000000000000000000000000000040000000000000000000000000e880802580a1fbdef67ace39d1b21c5b2c74f05900000000000000000000000000000000000000000000000000000000000000020000000000000000000000000000000000000000000000000000000000000001000000000000000000000000000000000000000000000000000000006729cb02000000000000000000000000e880802580a1fbdef67ace39d1b21c5b2c74f05900000000000000000000000000000000000000000000000000000000000001000000000000000000000000000000000000000000000000000000000000000140000000000000000000000000000000000000000000000000000000000000018000000000000000000000000000000000000000000000000000000000000007c0000000000000000000000000000000000000000000000000000000000000000100000000000000000000000064192819ac13ef72bf6b5ae239ac672b43a9af08000000000000000000000000000000000000000000000000000000000000000100000000000000000000000000000000000000000000000000000000000000000000000000000000000000000000000000000000000000000000000000000001000000000000000000000000000000000000000000000000000000000000002000000000000000000000000000000000000000000000000000000000000005c44bb5274a00000000000000000000000000000000000000000000000000000000000000200000000000000000000000000000000000000000000000000000000000000564dff525e10000000000000000000000000000000000000000000000000000000000000080000000000000000000000000000000000000000000000000000000000000012000000000000000000000000000000000000000000000000000000000000001c00000000000000000000000000000000000000000000000000000000000000260000000000000000000000000000000000000000000000000000000000000000400000000000000000000000088d100432f98956b16b66df56962fd3e5ccd297a000000000000000000000000540dde0739eefaf90d0ca05aca90513ce89e7e79000000000000000000000000153a381d1207862ca003f68600462faa66a828a7000000000000000000000000e41af8c3f0decf206c3afb9dbf2e7643f349e0b90000000000000000000000000000000000000000000000000000000000000004000000000000000000000000d61bbbb8369c46c15868ad9263a2710aced156c400000000000000000000000018d2bdef572c67127e218c425f546fe64430a92c000000000000000000000000f80132fc0a86add011bffce3aedd60a86e3d704d000000000000000000000000342fcfc16943a930251d15fccdcd95104f9b4e5f000000000000000000000000000000000000000000000000000000000000000400000000000000000000000000000000000000000000000000000000000000000000000000000000000000000000000000000000000000000000000000000000000000000000000000000000000000000000000000000000000000000000000000000000000000000000000000000000000000000000000000000000000000010000000000000000000000000000000000000000000000000000000000000080000000000000000000000000000000000000000000000000000000000000012000000000000000000000000000000000000000000000000000000000000001c00000000000000000000000000000000000000000000000000000000000000260000000000000000000000000000000000000000000000000000000000000000400000000000000000000000000000000000000000000021e19e0c9bab2400000000000000000000000000000000000000000000000000a968163f0a57b4000000000000000000000000000000000000000000000000422ca8b0a00a42500000000000000000000000000000000000000000000000000000000000000000000000000000000000000000000000000000000000000000000000000000000000004000000000000000000000000000000000000000000000878678326eac9000000000000000000000000000000000000000000000000002a5a058fc295ed000000000000000000000000000000000000000000000000108b2a2c2802909400000000000000000000000000000000000000000000000000000000000000000000000000000000000000000000000000000000000000000000000000000000000004000000000000000000000000000000000000000000000000000000000000000a000000000000000000000000000000000000000000000000000000000000000a000000000000000000000000000000000000000000000000000000000000000a0000000000000000000000000000000000000000000000000000000000000000000000000000000000000000000000000000000000000000000000000000000400000000000000000000000000000000000000000000065a4da25d3016c0000000000000000000000000000000000000000000000000152d02c7e14af680000000000000000000000000000000000000000000000009ed194db19b238c00000000000000000000000000000000000000000000000000000000000000000000000000000000000000000000000000000000000000000000000000000000000000000000000000000000000000000000000000000000000000000000000000000000000000000000000000000000000000000000000000000100000000000000000000000000000000000000000000000000000000003d0900",
          "blockHash": "0xc678457ddac09a85f3818c2854ad70bcf5b3cb2100a3000a08d4c547edb7b3d2",
          "blockNumber": "0x256de79",
          "transactionHash": "0xb877e79230ee39f729b965017f4da002d217ec7fbb159d10f180338c2e52a91a",
          "transactionIndex": "0x3",
          "logIndex": "0x4",
          "removed": false
        }
      ],
      "logsBloom": "0x04000000000000010000000000000000000040000000000000000000000000000000000000000000100000000000000000000000000000000000000000040000000000000000000000000000000000000000000000040000000000002000000000000000020000000000000000000800000000000000000000000000000000000000000000040000000000000000000000000000000000000000000004000000040000000000000000000100000000000000020000000000200000000000000000000000000000000000000000000000000000000000000000000000000060000000000000000000000000000000100000000000048000000000080000000000",
      "type": "0x0",
      "transactionHash": "0xb877e79230ee39f729b965017f4da002d217ec7fbb159d10f180338c2e52a91a",
      "transactionIndex": "0x3",
      "blockHash": "0xc678457ddac09a85f3818c2854ad70bcf5b3cb2100a3000a08d4c547edb7b3d2",
      "blockNumber": "0x256de79",
      "gasUsed": "0x22211",
      "effectiveGasPrice": "0x4a817c800",
      "from": "0xe880802580a1fbdef67ace39d1b21c5b2c74f059",
      "to": "0x2ae89936fc398aea23c63db2404018fe361a8628",
      "contractAddress": null
    }
  ],
  "libraries": [],
  "pending": [],
  "returns": {},
  "timestamp": 1729582655,
  "chain": 2020,
  "commit": "925b254"
}