{
  "transactions": [
    {
      "hash": null,
      "transactionType": "CALL",
      "contractName": null,
      "contractAddress": "0x8aaad4782890eb879a0fc132a6adf9e5ee708faf",
      "function": "proposeProposalForCurrentNetwork(uint256,address,address[],uint256[],bytes[],uint256[],uint8)",
      "arguments": [
        "1724818166",
        "0xd24D87DDc1917165435b306aAC68D99e0F49A3Fa",
        "[0x0000000000000000000000000000000000000000]",
        "[0]",
        "[0x]",
        "[0]",
        "0"
      ],
      "transaction": {
        "from": "0xd24d87ddc1917165435b306aac68d99e0f49a3fa",
        "to": "0x8aaad4782890eb879a0fc132a6adf9e5ee708faf",
        "gas": "0x6e592",
        "value": "0x0",
        "input": "0xdd1f89140000000000000000000000000000000000000000000000000000000066cea2f6000000000000000000000000d24d87ddc1917165435b306aac68d99e0f49a3fa00000000000000000000000000000000000000000000000000000000000000e00000000000000000000000000000000000000000000000000000000000000120000000000000000000000000000000000000000000000000000000000000016000000000000000000000000000000000000000000000000000000000000001c00000000000000000000000000000000000000000000000000000000000000000000000000000000000000000000000000000000000000000000000000000000100000000000000000000000000000000000000000000000000000000000000000000000000000000000000000000000000000000000000000000000000000001000000000000000000000000000000000000000000000000000000000000000000000000000000000000000000000000000000000000000000000000000000010000000000000000000000000000000000000000000000000000000000000020000000000000000000000000000000000000000000000000000000000000000000000000000000000000000000000000000000000000000000000000000000010000000000000000000000000000000000000000000000000000000000000000",
        "nonce": "0x272",
        "chainId": "0x7e5"
      },
      "additionalContracts": [],
      "isFixedGasLimit": false
    }
  ],
  "receipts": [],
  "libraries": [],
  "pending": [],
  "returns": {},
  "timestamp": 1724731787,
  "chain": 2021,
  "commit": "77b3b4c"
}