{
  "transactions": [
    {
      "hash": "0x43113e3e96a385785edc5e71c18aae40ea6050bd09b04c0afdcd93274243be39",
      "transactionType": "CALL",
      "contractName": null,
      "contractAddress": "0x8aaad4782890eb879a0fc132a6adf9e5ee708faf",
      "function": "proposeProposalForCurrentNetwork(uint256,address,address[],uint256[],bytes[],uint256[],uint8)",
      "arguments": [
        "1724818220",
        "0xd24D87DDc1917165435b306aAC68D99e0F49A3Fa",
        "[0x0000000000000000000000000000000000000000]",
        "[0]",
        "[0x]",
        "[0]",
        "0"
      ],
      "transaction": {
        "from": "0xd24d87ddc1917165435b306aac68d99e0f49a3fa",
        "to": "0x8aaad4782890eb879a0fc132a6adf9e5ee708faf",
        "gas": "0x6e592",
        "value": "0x0",
        "input": "0xdd1f89140000000000000000000000000000000000000000000000000000000066cea32c000000000000000000000000d24d87ddc1917165435b306aac68d99e0f49a3fa00000000000000000000000000000000000000000000000000000000000000e00000000000000000000000000000000000000000000000000000000000000120000000000000000000000000000000000000000000000000000000000000016000000000000000000000000000000000000000000000000000000000000001c00000000000000000000000000000000000000000000000000000000000000000000000000000000000000000000000000000000000000000000000000000000100000000000000000000000000000000000000000000000000000000000000000000000000000000000000000000000000000000000000000000000000000001000000000000000000000000000000000000000000000000000000000000000000000000000000000000000000000000000000000000000000000000000000010000000000000000000000000000000000000000000000000000000000000020000000000000000000000000000000000000000000000000000000000000000000000000000000000000000000000000000000000000000000000000000000010000000000000000000000000000000000000000000000000000000000000000",
        "nonce": "0x272",
        "chainId": "0x7e5"
      },
      "additionalContracts": [],
      "isFixedGasLimit": false
    }
  ],
  "receipts": [
    {
      "status": "0x1",
      "cumulativeGasUsed": "0x3c539",
      "logs": [
        {
          "address": "0x8aaad4782890eb879a0fc132a6adf9e5ee708faf",
          "topics": [
            "0x58f98006a7f2f253f8ae8f8b7cec9008ca05359633561cd7c22f3005682d4a55",
            "0x0000000000000000000000000000000000000000000000000000000000000000"
          ],
          "data": "0x",
          "blockHash": "0x79f3cda27dec1679059ef0be6829fab97ab767d402475084f79f11f072f99ae2",
          "blockNumber": "0x1ceccae",
          "transactionHash": "0x43113e3e96a385785edc5e71c18aae40ea6050bd09b04c0afdcd93274243be39",
          "transactionIndex": "0x1",
          "logIndex": "0x1",
          "removed": false
        },
        {
          "address": "0x8aaad4782890eb879a0fc132a6adf9e5ee708faf",
          "topics": [
            "0xd1221ffb98610024a29755d7db3c71692310f43a7cfcce7ee488a8c7e9e0bfa4",
            "0x00000000000000000000000000000000000000000000000000000000000007e5",
            "0x0000000000000000000000000000000000000000000000000000000000000006",
            "0xf25c395a99ca363e43d15bedccc359f8c471b9883dbbc2fa8f49e829f9848d09"
          ],
          "data": "0x0000000000000000000000000000000000000000000000000000000000000040000000000000000000000000d24d87ddc1917165435b306aac68d99e0f49a3fa000000000000000000000000000000000000000000000000000000000000000600000000000000000000000000000000000000000000000000000000000007e50000000000000000000000000000000000000000000000000000000066cea32c000000000000000000000000d24d87ddc1917165435b306aac68d99e0f49a3fa00000000000000000000000000000000000000000000000000000000000001000000000000000000000000000000000000000000000000000000000000000140000000000000000000000000000000000000000000000000000000000000018000000000000000000000000000000000000000000000000000000000000001e0000000000000000000000000000000000000000000000000000000000000000100000000000000000000000000000000000000000000000000000000000000000000000000000000000000000000000000000000000000000000000000000001000000000000000000000000000000000000000000000000000000000000000000000000000000000000000000000000000000000000000000000000000000010000000000000000000000000000000000000000000000000000000000000020000000000000000000000000000000000000000000000000000000000000000000000000000000000000000000000000000000000000000000000000000000010000000000000000000000000000000000000000000000000000000000000000",
          "blockHash": "0x79f3cda27dec1679059ef0be6829fab97ab767d402475084f79f11f072f99ae2",
          "blockNumber": "0x1ceccae",
          "transactionHash": "0x43113e3e96a385785edc5e71c18aae40ea6050bd09b04c0afdcd93274243be39",
          "transactionIndex": "0x1",
          "logIndex": "0x2",
          "removed": false
        },
        {
          "address": "0x8aaad4782890eb879a0fc132a6adf9e5ee708faf",
          "topics": [
            "0x1203f9e81c814a35f5f4cc24087b2a24c6fb7986a9f1406b68a9484882c93a23",
            "0xf25c395a99ca363e43d15bedccc359f8c471b9883dbbc2fa8f49e829f9848d09",
            "0x000000000000000000000000d24d87ddc1917165435b306aac68d99e0f49a3fa"
          ],
          "data": "0x00000000000000000000000000000000000000000000000000000000000000000000000000000000000000000000000000000000000000000000000000000064",
          "blockHash": "0x79f3cda27dec1679059ef0be6829fab97ab767d402475084f79f11f072f99ae2",
          "blockNumber": "0x1ceccae",
          "transactionHash": "0x43113e3e96a385785edc5e71c18aae40ea6050bd09b04c0afdcd93274243be39",
          "transactionIndex": "0x1",
          "logIndex": "0x3",
          "removed": false
        }
      ],
      "logsBloom": "0x00000000000400010000000000100000000040000000000000000000000000000000000000000000100000000000000000000000000400000000010000000000000000000004000000400000000000000000000000000000000000000000000000000000020080000000000000000800000000040000000000000000000000000000000400000000000000000000000000000000000000000000000005000000000000000000000000008000000000000000020400008000000000080000000000000000000000000010000000000000000000002000000000000000000020000000000000004000000000000000000000000000040000000000080000000000",
      "type": "0x0",
      "transactionHash": "0x43113e3e96a385785edc5e71c18aae40ea6050bd09b04c0afdcd93274243be39",
      "transactionIndex": "0x1",
      "blockHash": "0x79f3cda27dec1679059ef0be6829fab97ab767d402475084f79f11f072f99ae2",
      "blockNumber": "0x1ceccae",
      "gasUsed": "0x33edc",
      "effectiveGasPrice": "0x4a817c800",
      "from": "0xd24d87ddc1917165435b306aac68d99e0f49a3fa",
      "to": "0x8aaad4782890eb879a0fc132a6adf9e5ee708faf",
      "contractAddress": null
    }
  ],
  "libraries": [],
  "pending": [],
  "returns": {},
  "timestamp": 1724731847,
  "chain": 2021,
  "commit": "77b3b4c"
}